:020000040800F2
:10000000B01500209D0100084912000845120008A3
:1000100047120008030800080F2D00080000000028
:10002000000000000000000000000000E9130008CC
:10003000AB0E000800000000D9120008D11400081F
:10004000C1010008C1010008C1010008C101000888
:10005000C1010008C1010008B90E0008C101000873
:10006000DD0E0008C1010008010F0008C1010008F1
:10007000C1010008C1010008C1010008C101000858
:10008000C1010008C1010008C1010008C101000848
:10009000C1010008C1010008C10100082D0F0008BE
:1000A000C1010008C1010008C1010008C101000828
:1000B000C101000831150008C1010008C101000894
:1000C000C1010008C1010008C1010008C101000808
:1000D000C1010008C1010008C1010008C1010008F8
:1000E000C1010008C1010008D1120008C1010008C7
:1000F000C1010008C1010008C1010008C1010008D8
:10010000C1010008C1010008C1010008C1010008C7
:10011000C1010008C1010008C1010008C1010008B7
:10012000C1010008C1010008C1010008C1010008A7
:10013000C1010008C1010008C1010008C101000897
:10014000C1010008C1010008C1010008C512000872
:10015000C1010008C1010008C1010008C101000877
:10016000C1010008C1010008C1010008C101000867
:10017000C1010008C1010008C1010008C101000857
:10018000C1010008C1010008DFF80CD000F03AF905
:1001900000480047A1330008B01500200948016855
:1001A00041F4700101600848804708480047FEE7B5
:1001B000FEE7FEE7FEE7FEE7FEE7FEE7FEE7FEE717
:1001C000FEE7000088ED00E0E11400088901000866
:1001D0000FB400B58DB010A909900B9000914FF0AD
:1001E000FF300A9000200C900548069005480790C3
:1001F0006A4609A80F9900F0D7F80DB05DF814FB16
:10020000C5030008E30300082DE9FF5F1D464FF01A
:10021000FF3BD5E9014691465F464FF00008A969CA
:100220007F1C01988847296A824688470028F6D1B2
:10023000BAF1FF3F0CD024F4C064002E19DD600633
:1002400014D5BAF12B0F09D0BAF12D0F0ED103E05E
:10025000584604B0BDE8F09F44F48064A9697F1C4F
:1002600001988847761E8246002E02DDBAF1300FD3
:1002700003D0B9F1000F26D032E0A969761E44F40C
:1002800000747F1C019888478246002E05DDBAF174
:10029000780F06D0BAF1580F03D0B9F1000F10D083
:1002A0001EE0B9F1000F02D0B9F1100F18D1A96901
:1002B000761E24F400747F1C019888478246102023
:1002C00002E0082000E00A20814609E008FB090856
:1002D000A969761E44F400747F1C01988847824601
:1002E000002E05DD4946504600F04AF80028EDDAB8
:1002F000E96901988847A00502D46FF00100A8E7DA
:10030000E00725D1600613D5600502D5C8F10000CD
:1003100000E0404629680A1D2A600968220501D5C7
:10032000087015E0220701D5088011E008600FE091
:100330002868011D29600068210502D580F8008029
:1003400006E0210702D5A0F8008001E0C0F8008097
:1003500038467EE730B50B460146002020220124B6
:1003600009E021FA02F59D4205D303FA02F5491B83
:1003700004FA02F52844151EA2F10102F1DC30BD99
:100380003A2800D2303820F02002412A01D3A2F1CD
:100390003700884201D34FF0FF30704702681144A4
:1003A0001378016018467047D160044951610449CF
:1003B000116200211161114600F03CB89D03000854
:1003C00029040008426842B1016811F8013B23B1D9
:1003D000521EC0E90012184670470121C160881EF4
:1003E000704742685AB1C368016843B983688B4259
:1003F00005D0491E521CC0E90012002070474FF082
:10040000FF307047064C074D06E0E06840F00103FE
:1004100094E8070098471034AC42F6D3FFF7B8FED3
:10042000B8380008D8380008C0B24FF4F05100F0D6
:1004300095B900002DE9F34F8BB04FF0000801F1A2
:100440000C000C464FF0010B46460DF1080A0190D6
:10045000626901210198904705002DD0252D2CD0EF
:10046000216A8847C0B16269012101989047216AD9
:1004700088470028F7D1411E62690198904700E043
:10048000761CA1690B988847216A88470028F7D114
:10049000E1690B988847DBE7A1690B988847074615
:1004A000A84201D1761CD3E7E1690B9888477F1CED
:1004B00002D1B8F1000F6FD043E1002762693D46D9
:1004C0003946019890472A2804D162690121019890
:1004D00090470125DFF880926269012101989047D9
:1004E000A0F130010A290AD24F45E5DC07EB87016C
:1004F00000EB4107303FDFD445F01005ECE7E9069B
:1005000001D46FF000476C280AD04C2814D068281A
:1005100015D06A280DD074281CD07A281AD01DE076
:1005200062690121019890476C2802D045F00405CA
:1005300014E045F002050DE045F020050AE062698F
:10054000012101989047682802D045F0080505E090
:1005500045F400656269012101989047C4E901579B
:1005600065283DD019DC582877D00CDC452837D0D9
:1005700004DC252826D0412831D131E046282FD06F
:1005800047282CD12CE05B287DD0612828D0632817
:1005900079D0642823D157E0CDE06F2845D008DC1E
:1005A00066281DD067281BD0692821D06E2816D157
:1005B00027E0702842D0732865D0752844D0782869
:1005C0000DD14AE0A1690B988847054625283FF4DC
:1005D00069AFE1690B9888476D1C3FF46AAFB0E0E2
:1005E00023466A466FF001000B99AFF300809BE051
:1005F00045F040006060A80723464FF0000233D466
:100600003BE02068011D21600068290501D50670C6
:100610001EE7290701D506801AE7A90703D5F117B8
:10062000C0E9006114E7066012E745F04000606031
:10063000A80723464FF0080216D41EE040F60E012C
:1006400025EA0100606016E045F040006060A80700
:1006500023464FF00A0207D40FE045F040006060E7
:10066000A80708D5234610226FF001000B99AFF3BD
:10067000008059E007E0234610226FF001000B993B
:10068000FFF7C2FD50E04FF000094F464B4663288C
:1006900002D05B2806D040E0E80601D40120A0602B
:1006A00001273AE062690121019890475E2805D14F
:1006B0004FF001096269494601989047216939B9AB
:1006C00000210B46524642F82130491C0829FADB2A
:1006D000B0B3216969B9C11700EBD1614B110AEBC5
:1006E000830221F01F01411A01201368884003434F
:1006F000136062690121019890475D28E8D1B9F142
:10070000000F09D00020514651F82020D24341F873
:100710002020401C0828F7DB02AB224600976FF030
:1007200001000B99AFF3008000280CDA401C08D1BF
:10073000BBF1000F05D04FF0FF300DB0BDE8F08FDA
:10074000FFE74046F9E7E90701D108F1010806444F
:100750004FF0000B7CE60000CCCCCC0C7F2801D9FC
:10076000002208E0064A02EB5002C007127800D1CE
:10077000120902F00F02012090400840704700006B
:100780007838000870B58C1810F8015B15F0070375
:1007900001D110F8013B2A1106D110F8012B03E01A
:1007A00010F8016B01F8016B5B1EF9D12B0705D422
:1007B0000023521E0DD401F8013BFAE710F8013B6B
:1007C000CB1A921C03E013F8015B01F8015B521E87
:1007D000F9D5A142D8D3002070BD00004FF0290107
:1007E000A1F101010029FBD1A0F101000028F5D100
:1007F000704700004FF01500A0F101000028FBD168
:100800007047FEE72DE9FC5F4B49DFF82881402067
:1008100041F8148F494D88801020C1F808808881E4
:1008200080204D6208852020CD62088608208D64D6
:10083000A1F84C0002200D65A1F85400404E4FF481
:10084000805BCE66A1F870B04FF4806A4E67A1F865
:1008500078A0012100F04EFD0121082000F04AFDA2
:100860000121042000F046FD4FF001098DF80490AD
:10087000032750208DF80570002400908DF8064065
:100880008DF807406946404600F036FC8DF804902C
:10089000AA208DF8057000908DF806408DF807406D
:1008A0006946284600F028FC8DF804904FF4A050CB
:1008B0008DF8057000908DF806408DF80740694668
:1008C000304600F019FC00224021404600F081FC37
:1008D00001221021404600F07CFC002280212846A5
:1008E00000F077FC00222021284600F072FC002254
:1008F0000821284600F06DFC00220221284600F065
:1009000068FC00225946304600F063FC0022514644
:10091000304600F05EFC002000F040FD012000F0B9
:100920003DFD022000F03AFD032000F037FDBDE858
:10093000FC9F000000040240BC070020000C0240A5
:100940000008024010B50A460C0601F07F0303EBD5
:10095000830100EBC10102D501F58E7101E001F5C3
:100960005D71D2090B704A7001F0CEFF002010BDFE
:100970000A4610B5090602F07F0306D503EB830192
:1009800000EBC10101F58E7105E002EB820100EB85
:10099000C10101F55D7100248C700B70D2094A70A1
:1009A00001F099FF002010BD70B50C460E0601F055
:1009B0007F0505EB850100EBC10102D501F58E71C4
:1009C00001E001F55D71E4090D704C708A60CB7037
:1009D00000D0CD80022B01D100220A7101F052FF1C
:1009E000002070BD10B501F07F0404EB840100EB22
:1009F000C101C1F88833C1F880230023C1F88C33CA
:100A000081F8753381F87443C37801F55D71012B6A
:100A100000D10A6114F0FF0F03D001F0A7FF0020FE
:100A200010BD01F0C1FEFAE70069002261F30A126D
:100A300001681143016070470A4610B5090602F0CB
:100A40007F0306D503EB830100EBC10101F58E7135
:100A500005E002EB820100EBC10101F55D710124AB
:100A60008C700B70D2094A7001F068FF002010BD35
:100A700070B511F07F0404EB840100EBC1014FF06D
:100A8000010581F81D5181F81C41C1F82821C1F8E8
:100A90002C2101F58E714FF00002C1E9053203D01F
:100AA00001F064FF002070BD01F07EFEFAE7000057
:100AB0002DE9F0410646002502F07BF8074655E097
:100AC000F80751D03069EAB20369416BD14006EBB7
:100AD000820201F00101926943EAC11194680C405D
:100AE000E1071AD00124426B04FA05F18A434263FC
:100AF00006EB8500806984601F48E9B2006842689F
:100B000030469047F078012807D135B996F81101A1
:100B1000042802D1304601F0A3FE200704D506EBDD
:100B20008500082480698460E00604D506EB850012
:100B3000102480698460600604D506EB850040249B
:100B400080698460A00704D506EB850002248069D3
:100B50008460200608D52946304600F067F906EB88
:100B600085018020896988607F086D1C002FA7D1CE
:100B70000120BDE8F0810000080100202DE9F041CE
:100B80000646002402F01BF80746DFF8988043E091
:100B9000F8073FD0E1B2304602F017F80546C0072B
:100BA00025D006EB84000125416D8D60F178012987
:100BB0000CD1406D016904EB840006EBC000C1F369
:100BC0001201D0F87C23511AC0F88C13D8F8000019
:100BD000E1B2026830469047F078012807D134B975
:100BE00096F81101052802D1304601F039FEA80718
:100BF00004D506EB84000225406D8560280709D5E1
:100C0000D8F8000081683046884706EB8401082048
:100C1000496D88607F08641C002FB9D10120BDE8B0
:100C2000F08100000801002070B50646C0688169A7
:100C300021F010018161F068056A05F00F0000EBFA
:100C4000800006EBC004C5F3434004F55D7407283B
:100C500021D2DFE800F0202004202020150047F6F4
:100C6000F070054217D0C5F30A152A463046E168F0
:100C700001F0B3FFE0682844E060A069284409E07F
:100C8000082206F2CC51304601F0A7FFA069C5F357
:100C90000A110844A061F068816941F01001816186
:100CA000012070BD38B5044600208DF8000094F88E
:100CB00012018DF8000015480068416920468847F8
:100CC00020698068E2684FF400615161A17AD1B176
:100CD000C00718D094F81501012814D19DF8000020
:100CE000032810D1D4F80C01016841F00101016022
:100CF000D4F80C01016841F0030101600448016867
:100D000041F006010160012038BD0000080100200B
:100D100010ED00E070B50446006900250126416829
:100D200021F0010141602946204601F0FBFE002030
:100D3000FF2106E004EB800293699960526D916097
:100D4000401C62788242F5D821694FF0FF308861FB
:100D50002846216966F30F0066F31F40C8612169C8
:100D600045F00B004861216945F00B0008612069DE
:100D7000016821F4FE610160204601F071FDE16827
:100D80004FF4805048610348006801692046884755
:100D9000012070BD0801002070B5044601F02EFF4F
:100DA0000122002384F8122184F8143119464025C9
:100DB00011E000BF01EB810004EBC00080F81D21B1
:100DC00080F81C11A0F8221180F81F31C0E94953A6
:100DD000491CC0F8303160788842EBD8002110E01F
:100DE00001EB810004EBC00282F8753382F87413C2
:100DF000A2F87A1382F87733C2E9DF53491CC2F8AC
:100E0000883360788842EBD8204601F0A7FC204662
:100E100001F0A0FB0021204601F050FF204601F028
:100E2000D9FB2046BDE8704001F058BE2DE9F047DF
:100E30000D46064601EB850006EBC004D4E94C01E3
:100E4000421AD4F8240104F58E74904200D202466E
:100E5000D21C970806EB850918E000BFA0EB01083B
:100E6000A068404500D2804608F1030087081FFAB9
:100E700088F3EAB23046E16801F035FFE16801EB42
:100E80000800E060A16901EB0800A061D9F8180032
:100E9000806980B2B84205D9D4E90501814201D206
:100EA0000028DBD10120BDE8F087704701B500982C
:100EB000411E0091FBD208BD10B5074C012000F087
:100EC000D3F8002807D0204600F007FABDE810400C
:100ED000012000F03DB810BDBC07002010B5074C44
:100EE000042000F0C1F8002807D0204600F0F5F9F2
:100EF000BDE81040042000F02BB810BDE007002032
:100F000010B5094C102000F0AFF800280AD00220DC
:100F100000F050FA204600F0E0F9BDE81040102043
:100F200000F016B810BD00000408002010B5074CF2
:100F3000402000F099F8002807D0204600F0CDF9B5
:100F4000BDE81040402000F003B810BD2808002084
:100F50000149086070470000143C0140F0B585B0BD
:100F60000121082000F0C6F90121880300F0E6F90C
:100F7000002455208DF8104003908DF8134003A9EC
:100F8000384800F0B9F80221032000F02FFA0420BD
:100F90008DF80440082600908DF8056001258DF835
:100FA0000650684600F070F88DF808608DF809402A
:100FB0000F278DF80A708DF80B5002A800F046F943
:100FC0000021032000F012FA8DF804408DF805602E
:100FD00000958DF80650684600F056F806208DF80A
:100FE00008008DF809408DF80A708DF80B5002A8A2
:100FF00000F02CF90421032000F0F8F910208DF8FE
:10100000044000908DF805608DF80650684600F0A9
:101010003BF80A208DF808008DF809408DF80A7019
:101020008DF80B5002A800F011F90621032000F002
:10103000DDF940208DF8044000908DF805608DF8B2
:101040000650684600F020F817208DF808008DF84B
:1010500009408DF80A708DF80B5002A800F0F6F8E0
:1010600005B0F0BD000C0240064A0146002012689F
:10107000044B0A4014331B680B4202D0002A00D0F4
:1010800001207047003C014030B51A49837902685D
:1010900053B30B6893430B600A1D13680468A343A2
:1010A000136002790A441368046823431360114AE9
:1010B000083213680468A3431360131D1C68056895
:1010C000AC431C604479102C05D021440A680068A8
:1010D00002430A6030BD1168046821431160196839
:1010E00000680143196030BD0079084401689143EC
:1010F000016030BD003C0140F0B50023012403270E
:101100000D6804FA03F21540954242D1D0F800C0B0
:101110005E0007FA06F52CEA050CC0F800C091F84D
:1011200004C0D0F800E00CFA06FC4CEA0E0CC0F843
:1011300000C091F804C0BCF1010F02D0BCF1020F55
:101140001FD1D0F808C02CEA050CC0F808C091F8EF
:1011500005C0D0F808E00CFA06FC4CEA0E0CC0F80A
:1011600008C0D0F804C02CEA020CC0F804C04268E1
:1011700091F806C00CFA03FC1FFA8CFC42EA0C0240
:101180004260C268AA43C260CA79C568B2402A43B5
:10119000C2605B1C102BB3D3F0BD4B07DB0E9A4033
:1011A000C90810B500EB8100016A0F249C40A143DF
:1011B0000162016A1143016210BD006980B270478B
:1011C000406980B2704742694A404261704741615C
:1011D00070470AB10183704741837047F0B41749E3
:1011E0000A78012A0AD0CA680025B2F5006F00D13A
:1011F000CD60D1E902329A4202D10D70F0BC704745
:1012000002D9C2F5006301E0A3EB02031C460B61A7
:10121000402B96B205D940234032403CC1E903241B
:1012200003E02244C1E90325A3B201220A70044964
:101230008A19F0BC8121FFF71BBC000010010020BF
:10124000AD090020FEE7FEE77047000030B50F2231
:10125000C47801780123FCB1144C246801F1E02129
:1012600004F4E064C4F5E064C4F30724C4F10405A5
:10127000E2404478AC408578154025432A0181F846
:101280000024007800F01F018B404009800000F12D
:10129000E020C0F8003130BD01F01F008340480954
:1012A000800000F1E020C0F8803130BD0CED00E09E
:1012B0000249084302490860704700000000FA052F
:1012C0000CED00E0014800F095BD0000A8010020F1
:1012D0004FF48020FFF73CBE70470189491C018113
:1012E0000021418142886421642A02D0652A00D10C
:1012F00041807047044A0029116801D0014300E091
:10130000814311607047000030380240044A0029D0
:10131000116801D0014300E0814311607047000073
:1013200034380240044A0029116801D0014300E02A
:10133000814311607047000040380240044A002990
:10134000116801D0014300E0814311607047000043
:10135000443802401CB504460E48012150F82400D0
:10136000FFF7C8FF0B480021083830F81400009040
:1013700001208DF804008DF806108DF8070002207A
:101380008DF805000448694650F82400FFF7B4FEC4
:101390001CBD000068380008BC0000200349044A56
:1013A00031F8101052F8200041837047603800086F
:1013B000BC0000200349044A31F8101052F8200004
:1013C0000183704760380008BC000020044951F8D0
:1013D00020104A69034B33F8100042404A617047BD
:1013E000BC000020603800087047000010B58A0774
:1013F00021F003040849130F21440F22D1F80848B3
:101400009A409443C1F80848D1F80828984002430C
:10141000C1F8082810BD0000003001400CB50020C4
:101420002749019000900A6842F480320A604FF424
:10143000A0630A6802F400320092019A521C0192E1
:10144000009A12B9019A9A42F3D10A68920334D5EC
:10145000012000901A484030026842F08052026039
:101460001848026842F48042026015480830026859
:101470000260026842F400420260026842F4A05234
:101480000260031F104A1A600A6842F080720A6004
:101490000A689201FCD50D4A40F2056111600168AD
:1014A00021F003010160016841F00201016001685F
:1014B000C1F381010229FAD10CBD00900CBD0000DE
:1014C000003802400070004008544007003C0240D1
:1014D00002480168491C016070470000300000208C
:1014E0000F4810B5016841F0010101600C4A00216C
:1014F0000832116002680B4B1A400260031D0A4A51
:101500001A60026822F48022026005480C300160F3
:10151000FFF784FF05494FF00060086010BD000030
:1015200000380240FFFFF6FE1030002408ED00E016
:1015300070B53A4D0221284600F0BEF8384E394CBD
:10154000B0B10221284600F077F83088012802D196
:10155000002000F00DFA284600F0A6F8324980B2CB
:101560002080098801442846BDE8704000F0B9B9E0
:101570000421284600F0A0F8A8B10421284600F074
:101580005BF83088012801D100F0F2F9284600F01C
:101590008DF8264980B22080098801442846BDE89C
:1015A000704000F0A0B90821284600F085F8B0B1DD
:1015B0000821284600F040F83088012802D1022096
:1015C00000F0D6F9284600F073F8194980B220805F
:1015D000098801442846BDE8704000F086B9102112
:1015E000284600F069F8002816D01021284600F09F
:1015F00023F83088012802D1032000F0B9F92846E9
:1016000000F058F80B4980B2208009880144284630
:10161000BDE8704000F06BB970BD000000040040F0
:1016200020000020240000201600002018000020C8
:101630001A0000201C000020C943018270470029C5
:10164000018802D041F0010101E021F00101018097
:10165000704708B501210220FFF764FE1D208DF8B8
:10166000000001208DF801008DF802008DF80300C4
:101670006846FFF7EBFD0020FFF76CFE0120FFF747
:1016800069FE0220FFF766FE0320FFF763FE0020DD
:10169000FFF784FE0120FFF781FE0220FFF77EFEA8
:1016A0000320FFF77BFE08BD406B7047806B7047DF
:1016B000C06B7047006C704702460020138A928905
:1016C0000B4202EA010202D0002A00D0012070473A
:1016D000002A828901D00A4300E08A438281704750
:1016E00030B5028C22F001020284028C8388048BC4
:1016F00022F0020224F073050C882C438D891543D7
:101700004A882A430C4DA84202D00C4DA8420DD164
:1017100022F00805CA8923F440732A4322F0040505
:101720008A882A430D8A1D434B8A2B438380048376
:1017300089684163028430BD00000140000401401B
:10174000028B22F008020A430283704770B5028CB4
:1017500022F010020284028C8488038B0D8823F40B
:10176000E6464FF6FF7303EA052535438E8922F0DE
:10177000200203EA061616434A8803EA021232439D
:10178000104EB04202D0104EB04215D122F0800669
:10179000CA8924F4406403EA0212324322F040066C
:1017A0008A8803EA021232430E8A03EA8606264337
:1017B0004C8A03EA84043443848005838968816306
:1017C000028470BD0000014000040140028B4FF60E
:1017D000FF7322F4006203EA012111430183704781
:1017E00070B5028C22F480720284028C8488838B10
:1017F0000D8823F073031D4322F400738E894FF686
:10180000FF7202EA06261E434B8802EA0323334393
:10181000104EB04202D0104EB04215D123F40066F3
:10182000CB8924F4405402EA0323334323F4806633
:101830008B8802EA032333430E8A02EA0616264304
:101840004C8A02EA04143443848085838968C16326
:10185000038470BD0000014000040140828B22F02F
:1018600008020A438283704770B5028C22F48052CA
:101870000284048C8288838B0D8823F4E6464FF61D
:10188000FF7303EA0525354324F400568C8903EAE7
:10189000043434434E8803EA06362643084CA042FB
:1018A00002D0084CA04205D122F480440A8A03EAFF
:1018B000821222438280858389680164068470BD18
:1018C0000000014000040140828B4FF6FF7322F4B8
:1018D000006203EA012111438183704701858282FE
:1018E00070474163704781637047C163704701640B
:1018F0007047000030B50288164B174C98420DD047
:10190000A0420BD0B0F1804F08D0144DA84205D0B2
:10191000134DA84202D0134DA84203D122F0700506
:101920004A882A43104DA84206D0104DA84203D041
:1019300022F440750A892A4302804A68C2620A88F2
:101940000285984201D0A04201D1897A0186012105
:10195000818230BD000001400004014000040040CD
:1019600000080040000C004000100040001400403F
:1019700070B5364D00EBC00005EB80040026012059
:10198000FFF724FD628832486621642A45D0652A23
:1019900034D0662A40D1002006EBC60205EB820255
:1019A0005288662A4FD00022761C1044F6B2C0B28C
:1019B000032EF1D904282FD3002042F2107200BF69
:1019C00000EBC003401C25F8231005EB8303C0B2D5
:1019D0005A800328F4D91F49012008801E4802803C
:1019E0000320FFF7DBFC0020FFF7D8FC0220FFF705
:1019F000EDFCBDE870400120FFF7D0BC4078012825
:101A00000AD1218CE069FFF7DEFB6088208064202A
:101A100060806089401C608170BD6289521C92B2F6
:101A2000628123896568AB4204D243889A4205D318
:101A3000007818B160882080618070BD6088208047
:101A40006520608070BD0122AEE70000BC07002069
:101A5000A0000020220000202000002010B5D0F8B7
:101A6000E42552689047002010BD10B513460024AD
:101A70000A462146FEF7B6FF204610BD10B51346B4
:101A800000240A462146FEF7F3FF204610BD10B59C
:101A900004468021FEF7D0FF00212046FEF7CCFF50
:101AA0002046BDE8104000F0DBBE10B5C0F894231E
:101AB0000323C0F8902380F81131134600240A460E
:101AC0002146FEF78FFF204610BD70B50546002465
:101AD000052085F811012346224621462846FEF7B7
:101AE00081FF284600F0BCFE204670BD10B5C0F84E
:101AF0003C210223C0F8382180F81131134600241C
:101B00000A462146FEF7B4FF204610BD70B50546D3
:101B10000024042085F81101234622462146284648
:101B2000FEF7A6FF284600F09BFE204670BD000091
:101B300070B5054641B1D5F8E40542698AB395F818
:101B40001201032846D047E095F81101002605F55B
:101B50008E74022833D1E169A06881420FD9081A36
:101B6000E061E878012803D1D4E902100844E0607C
:101B7000A08BE16882B22846FFF780FF1FE0216A50
:101B8000B1FBF0F200FB121262B981420AD3606A23
:101B9000814207D2002211462846FFF76FFF666296
:101BA0000DE016E0D5F8E405C16829B195F81201F9
:101BB000032801D1284688472846FFF786FF95F875
:101BC0001601012808D1054800682969486085F890
:101BD000166101E028469047002070BD0C010020EE
:101BE00070B5054641B1D5F8E40582690AB395F8A8
:101BF000120103282CD02DE095F8110105F55D7434
:101C0000032827D1E169A068814213D9081AE0614D
:101C1000E878012803D1D4E902100844E060E169C2
:101C2000A068814200D2084682B22846E168FFF7E8
:101C30001CFF0FE0D5F8E405016929B195F8120100
:101C4000032801D1284688472846FFF75FFF01E0B7
:101C500028469047002070BD10B50446D0F8E8052E
:101C600040698047012084F81501002010BD10B59F
:101C70000446D0F8E80580698047D4F8E4050021DF
:101C8000426820469047002084F8150110BD38B501
:101C9000044648880D46010A04295AD2DFE801F0BB
:101CA00059021420D4F8EC15A0780A6869469047C8
:101CB0000146E888402803D094F81201012837D162
:101CC0000820ADF8000037E0D4F8E415A0788A6A5F
:101CD00069469047014602204870C4F8F01527E095
:101CE000C0B2062835D2DFE800F003080D12171C39
:101CF000D4F8EC15A0784A6817E0D4F8EC15A07871
:101D00008A6812E0D4F8EC15A078CA680DE0D4F81F
:101D1000EC15A0780A6908E0D4F8EC15A0784A69B7
:101D200003E0D4F8EC15A0788A696946904701462B
:101D3000BDF8000000280BD0EA88002A08D080B245
:101D4000824200D90246ADF800202046FFF7CEFEC1
:101D500038BD29462046FFF79AFE38BD70B50023EE
:101D600000281DD00446002502E06D1CEDB2641C65
:101D70002678002EF9D1022404EB45041480CC54BB
:101D80005B1C0322CA5400245B1C06E0CA545B1C83
:101D9000DAB28C54521CD3B2401C0278002AF5D11E
:101DA00070BD2DE9F0411D46174688460446069E43
:101DB00000F070FB04F2E452414682E8E000204665
:101DC000FEF7EAFFD4F8E805006880472046BDE842
:101DD000F04100F04BBB10B5D0F8E415096A884714
:101DE000002010BD10B5D0F8E415496A88470020DE
:101DF00010BD00002DE9F0470446002500F0CBFEA1
:101E000000287DD0204600F0CFFE060079D03003B8
:101E100003D52046FEF7B2FE0546700303D52046E3
:101E2000FEF746FE0543B0074FF0000A02D5E16811
:101E3000022048614C4F4FF00109002E17DAA07ABA
:101E400030B1D4F80C01D4F80C1120F00300086074
:101E50002069416821F001014160386881692046AC
:101E60008847E1684FF00040486145F001053005C2
:101E700003D52046FEF716FF0543300708D538681E
:101E8000C16820468847E1680820486145F001059F
:101E9000F00603D52046FEF7C7FE0543F00403D540
:101EA0002046FEF737FF0543B0041AD5204600F060
:101EB0005DFCE068D0F80C80204600F053FE03285B
:101EC00047D084F80290402128F47050A18000F59A
:101ED000A050E168C860E1684FF40050486145F0E7
:101EE0000105F00209D53868C16920468847E168D4
:101EF0004FF48010486145F00105B0020CD501E0B7
:101F000024E024E03868016A20468847E1684FF4FD
:101F10000010486145F00105700009D53868416A34
:101F200020468847E1684FF08040486145F0010550
:101F300070070BD5E0684668700703D53868816A7A
:101F400020468847E068466045F001052846BDE820
:101F5000F08784F802A04FF4007128F47050A1803B
:101F600000F51050B5E700000801002090F8CC25DE
:101F70000A7090F8CD254A7090F8CE2590F8CF35AC
:101F800002EB03224A8090F8D02590F8D13502EB7D
:101F900003228A8090F8D22590F8D33502EB0322F1
:101FA00092B2CA800121C0F8402180F81111704717
:101FB00010B50023044640221946FEF7F5FC002325
:101FC000402280212046FEF7EFFC012084F8120118
:101FD000D4F8E815A07849688847002010BD10B5EE
:101FE0000446D0F8E80500698047032084F8120110
:101FF000002010BD10B5D0F8E415C96901B18847BB
:10200000002010BD10B50446D0F8E4050268204653
:102010009047D4F8E80580688047002010BD000094
:1020200070B50A461A4D897804462970012905D8E9
:1020300094F81201022807D003280CD02046BDE8EE
:1020400070401146FFF723BDA1B184F810110320A1
:1020500084F812010BE091B194F81001884209D084
:1020600001462046FFF7FAFC297884F81011204633
:10207000FFF7C8FF2046BDE87040FFF747BD0220CC
:1020800084F8120184F810112046FFF7E7FCF1E70D
:10209000CC00002010B504464888012201280FD04A
:1020A000022831D1888810F0FF0F2DD121694968AD
:1020B000000A06281FD2DFE800F01E0B0F13171BC3
:1020C000C4F81821D4F8E40582682046904716E049
:1020D00021F0700110310EE021F0700120310AE092
:1020E00021F07001303106E021F07001403102E052
:1020F00021F0700150310548016084F81621204616
:10210000BDE81040FFF702BD10BD00000C0100202B
:102110001CB504466946FFF729FF9DF8001011F031
:102120001F000AD001280DD0022810D001F0800134
:102130002046FEF781FC00201CBD6946204600F0C9
:102140000BF8F8E76946204600F0E8F8F3E769463F
:10215000204600F079F8EEE72DE9F0414A780027B3
:1021600001260A2A42D2DFE802F03B5541524108DB
:1021700005412A27FFF78BFD61E004468888C8B92E
:10218000C888B8B9887800F07F0594F81201032850
:1021900010D084F8145129462046FEF745FC20460D
:1021A000FFF7B4FC1DB1022084F8120147E084F867
:1021B000126144E0204619E0FFF732FF3FE0CA8891
:1021C000012A13D190F81221022A02D0032A0DD13C
:1021D00002E001221B4917E0012200F5887113E09B
:1021E00090F81221022A04D0032A02D0FFF74FFCF4
:1021F00025E014490839CE60D0F818210AB103222D
:10220000CA6010490222091DFFF770FC17E0FFF7B2
:1022100041FF14E0044690F81201022801D003287F
:10222000C8D1488801280AD10020C4F81801D4F880
:10223000E4058268204690472046FFF767FC384651
:10224000BDE8F081D400002070B50D460446097940
:102250006878002658B3012816D0032831D194F8A5
:10226000120102282FD0032827D1688828B921B16C
:10227000802902D02046FEF7DFFBD4F8E40529468A
:102280008268204690470EE094F8120102281AD086
:10229000032812D16888A0B929B1802903D020462B
:1022A000FEF766FBE9E72046FFF730FC09E094F80B
:1022B0001201022807D003280DD029462046FFF737
:1022C000E6FB304670BD0029FBD08029F9D02046BE
:1022D000FEF7B2FBF5E710480D064FF000034FF094
:1022E000010208D501F07F0101EB810104EBC1017E
:1022F00091F81E1105E001EB810104EBC10191F899
:10230000761309B1426000E0436003490222091DCF
:102310002046FFF7EBFBD4E7CC00002070B5054664
:1023200090F8120100260C4603280DD120790128CF
:102330000AD8D5F8E405826828469047E08830B985
:102340002846FFF7E3FB02E02846FFF7A0FB3046F4
:1023500070BD10B590F8121180F81311042180F8A7
:102360001211D0F8E805C0688047002010BD0000B9
:1023700010B50A46024903A0FFF7F0FC004810BD63
:102380006E08002056435020436F6E666967000058
:102390007047704712200880004870477000002086
:1023A00070477047704770477047000010B50A4685
:1023B000024903A0FFF7D2FC004810BD6E080020C0
:1023C00056435020496E7465726661636500000073
:1023D00004200880004870476C00002010B50A46B1
:1023E000024903A0FFF7BAFC004810BD6E080020A8
:1023F00053544D6963726F656C656374726F6E6977
:102400006373000010B50A46024903A0FFF7A6FC5B
:10241000004810BD6E08002053544D3332205669D9
:10242000727475616C20436F6D506F727420696EA9
:10243000204653204D6F64650000000010B50A4629
:10244000024903A0FFF78AFC004810BD6E08002077
:102450003030303030303030303530430000000024
:1024600043200880004870473801002008B54FF429
:10247000C060FEF71DFF43208DF8000001208DF89D
:10248000010003218DF802108DF803006846FEF765
:10249000DDFE08BD2DE9FC4101210846FEF72AFFBB
:1024A0004FF4C050032500908DF8055002208DF8A0
:1024B000040000241E4F8DF806408DF80740694641
:1024C0003846FEF719FE0A220B213846FEF765FE54
:1024D0000A220C213846FEF760FE8DF8055078156B
:1024E0008DF80440012600908DF806608DF80740B5
:1024F00069463846FEF700FEB0028DF8066000908F
:102500008DF807608DF8055069463846FEF7F4FDF2
:102510000A2211463846FEF740FE01218803FEF7E5
:102520000DFF01218020FEF7F1FEBDE8FC810000D7
:10253000000002404FF47A714843AFF30080C0EBD3
:1025400000100021C0000722B0FBF2F0491C8142BC
:10255000FCD9704770B50446017A0025C06801298E
:1025600015D0C16841F04001C160204600F0CAF8B2
:10257000617A4FF4502009B14FF4E810E1688863A4
:102580001420FFF7D7FFE078012819D020E0816BF5
:10259000627A21F480310AB141F480118163E068EC
:1025A000C16821F0401121F42021C160204600F0D3
:1025B000A9F8E07801280BD1E1682A208860E2E7D9
:1025C000E068816821F01E010A3141F0200181603C
:1025D000284670BD2DE9F04104460027D0F80C01D3
:1025E0003E46354607602069016821F4C05101600C
:1025F000E07A012829D10321204600F0C6FAE068DC
:102600008022426220212846E36861F31F4062F382
:102610000F00986200EB104060F30F05E06862F372
:102620001F45C0F8045105EB154060F30F05E06845
:1026300061F31F45C0F8085105EB154060F30F0525
:10264000E06866F31F45C0F80C511021204600F0E9
:1026500069FA204600F04AFA20690661206946615D
:1026600021694FF0FF3088612069C66100214FF079
:102670009040FF2312E000BF04EB8105D5F818C09D
:10268000DCF80020002A01DA024600E03246CCF8ED
:102690000020AA691661AA699360491C62788A427F
:1026A000EAD8002212E000BF04EB8205D5F854C03E
:1026B000DCF80010002901DA014600E03146CCF8D0
:1026C0000010696D0E61696D8B60521C61789142DA
:1026D000EAD82069016941F480710161E07801283C
:1026E00009D10320402161F38A0040F4803061F376
:1026F000594021690863204600F0C8F93846BDE812
:10270000F0810000F8B5002704463E460097124DC0
:102710000320FFF714FFE06800690090761CAE42CA
:1027200001D90020F8BD00980028F1DA00990020B6
:1027300041F0010100910099E2681161E1680A69C4
:102740000092401CA84202D8009AD207F7D1032079
:10275000FFF7F5FE3846F8BD400D0300C0680021C4
:10276000826822F0010282600846704710B5016954
:1027700000238C6882691168C4F341042CB1012CD8
:1027800003D0022C04D0032C05D16FF30A0102E020
:102790006FF30A01C91C11600069416841F480713E
:1027A0004160184610BD0000F0B54A7800254C691C
:1027B000012A15D00A7800EB82035A6D1668126957
:1027C000DCB38C68C1F8144064F306025B6D22F43C
:1027D000C01202F500221A61C278012A30D035E019
:1027E00083691F681A6934B18E68B44206D966F3EA
:1027F00006024E6104E022F07F0201E064F306026B
:1028000022F4C01202F500221A61C278012A05D111
:102810000C780A6900EB8404A469626147F0044201
:102820001A60C278CAB94A69BAB10A780069012146
:102830009140426B0A4342630FE0FFE70C7AC3E723
:102840000B780A6900EB83035B6D5A61097846F0E7
:10285000044200EB8100406D02602846F0BD00009C
:10286000426D07491161C178012908D1426D00F21A
:10287000CC515161406D01684FF08021016070477B
:10288000180008C0F0B50E7800254F780122B2403C
:102890002B4600EB8604012F19D0646D62F31F43B1
:1028A000226816040DD40E8966F30A02CE7889795F
:1028B00066F3934261F3995242F0805141F4004132
:1028C00021600069C1691943C1612846F0BDA4694E
:1028D00062F30F03E4E710B502464C780B78002052
:1028E00002EB8302012C09D0526D1368C97823F4DE
:1028F0000013032904D0022902D003E09269F4E70F
:1029000043F08053136010BD30B50C7803464D780A
:1029100001220020A24003EB8401012D09D04C6D5F
:10292000014662F31F4120601A69D3698B43D3616A
:1029300030BD8C69014662F30F01F4E702464B7823
:102940000978002002EB8101012B05D0496D0A684E
:1029500042F400120A6070478A691168002901DA9E
:1029600041F0804141F4001111607047F0B54B789F
:102970000A78002401264F6900EB8202012B15D052
:10298000556D2B682A69002F61D08E6837447F1EF1
:10299000B7FBF6F767F3DC42C2F3C947774367F347
:1029A00012022A61C278012A57D05CE095692B682F
:1029B0002A696FB1D1F808C067F3120267447F1E1D
:1029C000B7FBFCF767F3DC42CF78012F05D008E0B6
:1029D0006FF3120266F3DC4203E022F0C04202F120
:1029E00000522A61C278012A0ED0CA78012A12D078
:1029F0004A69BAB10A7896400269556B3543556306
:102A0000CA78012A07D00DE00D780A6900EB850528
:102A1000AD696A61F4E702699268120AD2070CD0C4
:102A200043F0805343F004420B7800EB83039B692F
:102A30001A60CA78012A03D026E043F00053F1E778
:102A40008A8A93B20A78C96800F04DF91CE08F6851
:102A500067F3120266F3DC42A3E70D780A6900EB24
:102A600085056D6D6A61CA78012A06D14A7912B16D
:102A700043F0005301E043F08053097843F00442EF
:102A800000EB8100406D02602046F0BD30B5C368A8
:102A9000002211469A61C4686FF080436361C56883
:102AA000541E6C60C4686361C4680B4BA361C37837
:102AB00003B9102141F48721C06841F0081141F4A5
:102AC000401141F08041836941F004018B430B4385
:102AD0008361104630BD000000080080C0680021FE
:102AE000826842F0010282600846704738B50024CF
:102AF00021460094009A42F010020092009AC368A6
:102B00001A61074AC06803690093491C914202D8C0
:102B1000009BDB06F7D40320FFF711FD204638BDEC
:102B2000400D030038B5002422460094009B43F07A
:102B300020030093009B61F38A1300930099C368FC
:102B400019610749C06803690093521C8A4202D880
:102B5000009B9B06F7D40320FFF7F1FC204638BD0D
:102B6000400D03000146002009698968C1F3410155
:102B700039B1012903D0022905D0032900D102204F
:102B8000704703207047012070470269106861F3A5
:102B9000010010607047C068406910F0010F01D05B
:102BA0000020704701207047C06841698069084073
:102BB000704700698169C069084080B27047006948
:102BC0008169C0690840000C704700EB8101496DC4
:102BD00089680069406908407047034610B50020C5
:102BE000D21C9208D3F8D03003E01C6841F8044BA3
:102BF000401C9042F9D3084610BD000070B5002279
:102C00000125C2704026857014461346868001292E
:102C100001D061B114E0C5720821017004214FF0A8
:102C2000A04241709115C1800221017208E0C37277
:102C30000C210170062141701F4A4FF4A061C18030
:102C400002F50061C0E9032100210AE002EB411313
:102C500003F5106600EB810503F53063AE61491C96
:102C60006B6543788B42F1D802F580614161403158
:102C7000C0F8CC10002108E002EB411300EB810505
:102C800003F5A063491CC5F8903003788B42F3D854
:102C9000002108E002EB013300EB810503F58053CE
:102CA000491CC5F8D03003788B42F3D802F5606236
:102CB000C0F80C21204670BD0000044010B5C0686B
:102CC0000024C268012922F0C04201D019B104E0F9
:102CD00042F0005201E042F08042C2603220FFF731
:102CE00029FC204610BD30B5C47800256CB900EB36
:102CF00082000024DB1C9B08D0F8D00003E051F8D0
:102D0000042B0260641C9C42F9D3284630BDFEE7C8
:102D1000042822DD124A202802D021281DD10BE0F0
:102D2000CB78086863F31F601060087910714879E8
:102D300050718879907110E0107808701088000A3E
:102D400048701068000C88701068000EC870107908
:102D5000087150794871907988710020704700009F
:102D6000840000200021054B02E05A54491CC9B2DE
:102D7000425C002AF9D10020704700005D08002065
:102D8000F0B50023094A0A4D4FF4006C1E4608E0D6
:102D90001468C75C2F55641C1460644500D116602C
:102DA0005B1C8B42F4D30020F0BD00001801002012
:102DB000AD09002000207047002070470FB41CB5FB
:102DC0000A46521ECDE9000207A9054B6A4606983D
:102DD00000F02CF8009A002111701CBC5DF814FB67
:102DE000812F00080FB4084B10B504A902AA03985C
:102DF00000F01CF8044602A9002000F0CCF82046A0
:102E000010BC5DF814FB0000972F000802E008C812
:102E1000121F08C1002AFAD170477047002001E054
:102E200001C1121F002AFBD1704700002DE9FF4F9E
:102E300089B09B460446002506E025280BD05A465B
:102E40000B999047641C6D1C20780028F5D10DB0BB
:102E50002846BDE8F08F0027B8460122474900E028
:102E6000074314F8013F203B02FA03F00842F7D170
:102E700020782E2819D114F8010F47F004072A28CA
:102E80000ED06FF02F022078A0F1300109290CD864
:102E900008EB880102EB410100EB0108641CF2E73A
:102EA0000A98641C50F8048B0A9020780028CED031
:102EB000642808D0692806D075281ED05A460B9978
:102EC00090476D1C58E00A994FF00A0901C90A9110
:102ED000002802DA40422D2102E0390504D52B21D9
:102EE0008DF82010012103E0F90704D02021F7E735
:102EF0008A4608AE0DE00021FAE70A994FF00A0968
:102F000001C90A91F7E74946FDF724FA303106F87E
:102F1000011D0028F7D1ADEB060000F1200978076C
:102F200001D44FF00108C84502DDA8EB090000E01C
:102F300000208046002706E008A85A46C05D0B998D
:102F400090476D1C7F1C5745F6DB04E030205A4645
:102F50000B9990476D1CB8F10001A8F10108F5DC50
:102F600005E016F8010B5A460B9990476D1CB9F114
:102F70000001A9F10109F4DC641C65E709280100DE
:102F80004A68002A06D00A68531C0B601070486813
:102F9000401E486070470A68531C0B6010707047F1
:102FA0000022134602E08354521CD2B28A42FAD362
:102FB000704700003EB538480290A0F12401A0F10E
:102FC0004802CDE90021A0F17004231D334A34A149
:102FD0003748FDF7FDF80020208160810121A181A3
:102FE000E0812082608220806080A085E08521864B
:102FF0006086A086E086A084E084A4F85000A4F84F
:103000005200A4F85410A4F85600A4F85800A4F8EC
:103010005A00A4F84800A4F84A00A4F87400A4F8E0
:103020007600A4F87810A4F87A00A4F87C00A4F83C
:103030007E00A4F86C00A4F86E001E4C0022402113
:103040002046FEF7C6F8002210212046FEF7C1F800
:10305000194C002280212046FEF7BBF800222021D7
:103060002046FEF7B6F8154D0022A1142846FEF7BB
:10307000B0F8002221152846FEF7ABF800220821FF
:103080002046FEF7A6F803B02046BDE830400022F7
:103090000221FEF79EB800002C0800202C00002022
:1030A00025642025642025642025642025640000F3
:1030B0005D08002000040240000C024000080240AD
:1030C0000120AFF3008010B5044600F017F900218D
:1030D000204600F023F9BDE810404FF47A70FDF768
:1030E0007DBB0000012204210148FEF772B80000F8
:1030F00000080240002204210148FEF76AB80000DF
:103100000008024010B5FFF7F5FFFDF773FBFFF76E
:10311000E9FFFDF76FFBFFF7EDFFBDE8104064200E
:10312000FDF75CBB19B1C030C0B2FFF7CCBF803037
:10313000FAE7000070B5044601210420FEF7DAF832
:103140002049F72000220860012008718A710320BD
:1031500048711D4DCA712846FDF7CEFF4CF2503024
:10316000FDF73CFB30212846FEF731F8FFF7CAFF98
:1031700041F288363046FDF731FBFFF7C3FF30469A
:10318000FDF72CFBFFF7BEFFA020FDF727FB20215A
:103190002846FEF71CF8FFF7B5FFA020FDF71EFB41
:1031A0002820FFF790FF0820FFF78DFF0120FFF791
:1031B0008AFF0620FFF787FF2046BDE87040FFF733
:1031C00082BF0000A40000200008024082B0402816
:1031D00001D2402000E000208DF800009DF80000A2
:1031E00002B08030C0B2FFF76EBF38B5044600F0C1
:1031F00085F88DF800009DF800000A2C06D01028F4
:1032000008D09DF80000502807D00AE0BDE83840FB
:10321000FFF7DCBF0021C02001E00021802000F08A
:103220007DF800F06BF82046BDE83840012100F041
:1032300075B8000010B5044602E000BFFFF7D5FFE7
:1032400014F8010B0028F9D110BD000038B510B1F9
:1032500000F034F801E000F039F800F03FF81548CC
:10326000F021154C01600021017101462046FDF757
:1032700043FFFFF737FFFDF7BDFA2046FDF79DFF3F
:1032800000018DF80000FFF735FFFDF7B3FAFFF7F7
:1032900029FFFDF7AFFA2046FDF78FFF9DF80010DC
:1032A00000F00F0008438DF80000FFF723FF9DF8A2
:1032B000000038BDA4000020000802400122114691
:1032C0000148FDF786BF00000008024000220121EE
:1032D0000148FDF77EBF00000008024001220221E4
:1032E0000148FDF776BF00000008024000220221DD
:1032F0000148FDF76EBF00000008024008B500203D
:10330000FFF7A4FF8DF800000006F8D41020FDF7A9
:1033100065FABDE808400020FFF798BF38B50446BD
:1033200011B1FFF7CBFF01E0FFF7D0FFFFF7DEFFA2
:103330001948F021194D01600121017100218171AD
:1033400001462846FDF7D8FE2846FDF739FF8DF8DF
:1033500000009DF8000000F005008DF800009DF8C9
:10336000000004F0F00101432846FDF730FFFFF7AD
:10337000C9FE2007010E9DF8000001432846FDF715
:1033800026FFFFF7BFFE9DF8000040F0F001284641
:10339000BDE83840FDF71BBFA40000200008024034
:1033A00088B0754C00252582FEF753F9FDF72AFAFF
:1033B000FDF7D4FD0C20FFF7BDFEDFF8C081616989
:1033C000DFF8C091D8F800004008B0FBF1F0401ED3
:1033D00020806B484FF6FF71416005800581458074
:1033E00001464846FEF786FA012221884846FEF744
:1033F00075FA634E0C360127358077806088B0609F
:10340000B58131464846FEF76BF900214846FEF784
:1034100097F97780A088B06031464846FEF796F964
:1034200000214846FEF7D2F97780E088B060314647
:103430004846FEF7D5F900214846FEF70FFA778097
:103440002089B06031464846FEF70EFA0021484612
:10345000FEF73AFA01221E214846FEF739F94A489A
:1034600000904A4B4A4A0121A6F5C060FEF799FC3C
:10347000D8F800004FF47A71B0FBF1F0B0F1807F22
:1034800016D220F07F414FF0E020491E4161414AB1
:10349000F02182F8141D8561072101611E2102A817
:1034A000FFF77EFD1E213C48FFF77AFD143600E051
:1034B000FEE7A08938B3012845D0A0F5E260B0F559
:1034C000005FF6D100214846FEF7B9F865811E215C
:1034D00002A8A561FFF764FD1E212F48FFF760FDDC
:1034E00000F064F80320FDF765FF0120FDF756FFAB
:1034F0000020FDF753FF0220FDF750FFA58142F2A7
:103500001070E081D5E71E2102A8FFF72BFC2348AD
:10351000FDF7CCFCFFF74EFDA0690128C9D164205E
:103520007080F084A6F84A00A6F86E003580B58455
:10353000A6F84850A6F86C50E581A78101214846BD
:10354000FEF77DF8B5E7FFF7BBFD00210846FFF762
:10355000E9FDB6F87410B6F85000CDE9000108484E
:10356000B38D32890EA1B030FFF73CFC0448B03077
:10357000FFF760FE9DE7000014000020000000201F
:103580009C07002000040040340000207C01002043
:10359000500000200FE000E05D080020FFFF3F002A
:1035A00025692025692025692025690030B5224933
:1035B0008BB000200246088004AB1A54401CC0B2F5
:1035C0001428FAD31D4A002009AB00BF00EBC00449
:1035D00002EB84042579247A2C1BE4B21C540D8858
:1035E000401C2C44C0B20C800328EFD923041B0CD0
:1035F00015D09DF824009DF827309DF826209DF8D1
:1036000025108DE80F0001230DA2142104A8FFF757
:10361000D5FB142104A8FFF7B3FB0BB030BDB2F803
:103620007410B2F85000948D1289CDE9002404A2E0
:10363000CDE90201E9E700001E000020BC070020E0
:1036400025692569256925692569000070B50F4937
:103650000A78012A18D10A69002652B10B46402A7D
:10366000DD68ACB207D94023403A4035C1E9035286
:1036700005E00E7008E093B22A44C1E9032604492C
:103680000A198121FDF7F4F9002070BD1001002016
:10369000AD09002010B5044601EB810004EBC00029
:1036A000B0F88C0381B2064802690648904740236F
:1036B000044A01212046FDF795F9002010BD0000C5
:1036C0008C0000206D09002010B504468121FDF713
:1036D00039F901212046FDF735F982212046FDF711
:1036E00031F9024840688047002010BD8C0000205E
:1036F00010B5074C6069FF2807D00649A2698B689E
:1037000004F120019847FF206061002010BD0000F7
:10371000100100208C00002010B504460223402236
:103720008121FDF741F90223402201212046FDF7C6
:103730003BF90323082282212046FDF735F9084989
:10374000022008710020487106480168884740231C
:10375000054A01212046FDF745F9002010BD000073
:10376000700000208C0000206D090020064910B573
:10377000CA69521CCA61062A03D10022CA61FDF738
:103780002DFD002010BD00001001002070B50C467A
:103790000546294920783A2210F06006A1F131034C
:1037A00022D0202E05D021462846FEF770F90220AF
:1037B00070BD2249E2888E688AB10006607806D51D
:1037C0001D491139B0471C49E28811391FE0C3E98E
:1037D0000502194928461139FEF767F927E000224A
:1037E00060781146B04722E06078062804D00A28A5
:1037F00011D00B281BD112E060882123B3EB102FCE
:1038000005D10D49E28809313A2A00D93A222846E1
:10381000FEF76CF90BE0084901222D39F7E76088C3
:1038200010F0FF0F05D021462846FEF730F90020A2
:1038300070BDC0B25860FAE7410100208C00002042
:103840000000060203070700010001000400080051
:103850000100000000000200010000000100000063
:103860000010002000400080080000000800000058
:103870000800000008000000DDDDDDDDDCBBBBDD95
:10388000DDDDDDDDDDDDDDDD988888888888888800
:103890007777777777888888855555566666666620
:1038A00066666666666888888333333222222222FF
:1038B000222222222228888DD838000800000020E9
:1038C000A801000084070008DC390008A8010020D6
:1038D000081400001C2E000811847A030A20090134
:1038E000020304060708095A1D02A1A3D00713A961
:1038F000231B08A3041A91041AA7041AA5041A93F7
:10390000041AA1041A95041AD1041ADD041305241B
:103910001B083D041A710C1AAD04170403090412A4
:103920000132021640830440571A027232012AC241
:1039300005120813B92D1B08B5041A11041A8104C5
:103940001A6504A50101200313024012443A4008FD
:103950002904DA0C04F113E11B1B083104131121B3
:103960001408F51F1B08B1041A53881ADF0813D76F
:103970001D1B08E50413591C1B086F0422DC0218E8
:10398000200213FF1C090243BF1125C03209041B8A
:1039900001020B19EE16100105240110090104247F
:1039A0000202052406170107058203081CFF09040B
:1039B000F5320A2C070501A63C070581AD1319371E
:1039C0001408C9361B088D08411AF10C1A4D041A47
:0C39D00095045A6D144113612402000894
:040000050800018965
:00000001FF
